:100000000C942C010C9477040C9449010C94490134
:100010000C9449010C9449010C9449010C94490138
:100020000C9449010C9449010C9449010C94490128
:100030000C9449010C9449010C9449010C94490118
:100040000C9449010C9449010C949D110C944901A4
:100050000C94490104030904200363006F00640049
:10006000650061006E0064006C0069006600650058
:100070002E0063006F006D001003500061007300DC
:100080007300670065006E00120110010000000897
:10009000424231E100010102000109022200010196
:1000A0000080190904000001030101000921010178
:1000B0000001223F000705810308000A0501090627
:1000C000A10175019508050719E029E7150025012B
:1000D00081029501750881039505750105081901CF
:1000E0002905910295017503910395067508150080
:1000F00025650507190029658100C053454E442038
:100100005041535300414444205041535300524501
:100110004D4F56452050415353004348414E4745AB
:10012000205041535300FB0005010E011A010D0937
:100130000E60157116311A7A1B731C611D771E3201
:1001400021632278236424652534263329202A76E6
:100150002B662C742D722E35316E32623368346703
:10016000357936363A6D3B6A3C753D373E38412C21
:10017000426B4369446F45304639492E4E2D4B6CD6
:100180004C3B4D705227545B553D5A0D5B5D5D5D98
:10019000613C660869316B346C377030712E723295
:1001A000733574367538761B792B7A337B2D7C2A20
:1001B0007D3900000D090E7E155116211A5A1B5368
:1001C0001C411D571E402143225823442445252409
:1001D000262329202A562B462C542D522E25314ECB
:1001E0003242334834473559365E394C3A4D3B4AF2
:1001F0003C553D263E2A413C424B4349444F45290C
:100200004628493E4E5F4B4C4C3A4D504A3F522295
:10021000547B552B5A0D5B7D5D7C613E66086931D0
:100220006B346C377030712E7232733574367538AA
:10023000792B7A337B2D7C2A7D3900006CF069F1B3
:1002400071F170F37AF47DF575F672F76BF874F965
:100250004AFA14FB11FC000011241FBECFE5D4E0C4
:10026000DEBFCDBF10E0A0E6B0E0EAE2F3E302C0FB
:1002700005900D92AC39B107D9F711E0ACE9B0E0C7
:1002800001C01D92A630B107E1F70E94DA0C0C9470
:1002900093190C940000DF93CF93CDB7DEB78BE4B6
:1002A0008093D800CF91DF910895DF93CF93CDB79E
:1002B000DEB7CF91DF910895DF93CF93CDB7DEB74F
:1002C00028970FB6F894DEBF0FBECDBF9D838C83F9
:1002D0006E8358874F838F819885FC018081882F9A
:1002E00090E080719070009761F08F819885FC019B
:1002F000918188E8292F28278F819885FC01218307
:1003000005C08F8198852AE5FC0120838F8198851F
:1003100002969A8389838E818B838C819D81FC01D7
:10032000208189819A81FC01208389819A810196AB
:100330009A8389838C819D8101969D838C838B8197
:1003400081508B838B81882341F78F81988502961A
:100350006E810E9473048E81282F2C5F8F81988577
:10036000FC01208328960FB6F894DEBF0FBECDBFE8
:10037000CF91DF910895DF93CF9300D00F92CDB747
:10038000DEB79A8389836B8389819A8127ED30E078
:100390006B81A9010E945C010F900F900F90CF918B
:1003A000DF910895DF93CF9300D000D000D0CDB778
:1003B000DEB79E838D83198280E48A838D819E813E
:1003C000FC0183818B838B81813049F482E18983B5
:1003D00088E890E09093E7008093E6004FC08B811F
:1003E000823049F482E289838AE990E09093E700C1
:1003F0008093E60043C08B81833049F58D819E81D7
:10040000FC0182818C838C81882349F484E0898378
:1004100084E590E09093E7008093E6002FC08C8104
:10042000813049F480E2898388E590E09093E70089
:100430008093E60023C08C81823001F580E18983BE
:1004400088E790E09093E7008093E60017C08B81E7
:10045000813249F489E089838CEA90E09093E70047
:100460008093E6000BC08B81823241F48FE3898355
:100470008CEB90E09093E7008093E6008A81809374
:100480009C00898126960FB6F894DEBF0FBECDBFC3
:10049000CF91DF910895DF93CF93CDB7DEB7289743
:1004A0000FB6F894DEBF0FBECDBF98878F83198239
:1004B00085ED90E09B838A838F819885FC01828102
:1004C0008C838A819B81FC0110828F819885FC013D
:1004D00081818D838D81882371F48F819885FC01C2
:1004E00080818F718E838A819B810196FC011082AD
:1004F00082E0898330C08D81853021F48C818093A6
:10050000E90029C08D81863031F48F8198850E9461
:10051000D201898326C08D81883039F48BEE90E03A
:100520009B838A8381E0898316C08D81893031F471
:100530008C818093EB000E9455010DC08D818A3023
:1005400019F481E0898307C08D818B3021F40E94EA
:100550004B010E9455018A819B819093E700809313
:10056000E600898128960FB6F894DEBF0FBECDBF96
:10057000CF91DF910895DF93CF93CDB7DEB7289762
:100580000FB6F894DEBF0FBECDBF9F838E83688702
:100590008E819F819B838A838091E4008D3209F054
:1005A00048C08885883009F05BC083EC8093CC001C
:1005B0008AE58093600010929C008A819B81FC01F7
:1005C000808180768C838C81882331F08E819F811D
:1005D0000E94B908898305C08A819B810E944B02D1
:1005E000898389818F3F79F48A819B81FC01808195
:1005F00088232CF48A819B81FC018681898380E891
:1006000080939C0012C08A819B81FC018781882392
:1006100061F48A819B81FC0196818981981728F475
:100620008A819B81FC018681898389818093610015
:1006300018C080919C008823A4F48E819F816885D6
:100640000E9418098D838D818F3F21F48EE1809364
:10065000600007C08D81882321F01092610001C0E5
:10066000000028960FB6F894DEBF0FBECDBFCF9125
:10067000DF9108951F93DF93CF93CDB7DEB72A970D
:100680000FB6F894DEBF0FBECDBF998788876A8703
:100690008A85882309F44FC08A8589838091E60082
:1006A0009091E7009B838A8380919C00882F90E043
:1006B00080749070009709F18A819B819D838C835F
:1006C0008C819D81FC0114911E838E818F8388858E
:1006D00099852F81FC0120838885998501969987CA
:1006E00088878A819B8101969B838A838981815037
:1006F00089838981882301F718C08A819B81FC0145
:10070000208188859985FC012083888599850196BB
:10071000998788878A819B8101969B838A838981B7
:10072000815089838981882341F78A819B819093B5
:10073000E7008093E6008A852A960FB6F894DEBF1C
:100740000FBECDBFCF91DF911F910895DF93CF935F
:1007500000D0CDB7DEB7809161008983898189306F
:1007600010F088E08983909161008981292F281BEE
:10077000822F809361009091CC0088E88927809334
:10078000CC008DEC90E069810E943A038A838A81D3
:10079000893078F48DEC90E06A810E9473048A813C
:1007A0008C5F8A838A818C3048F48FEF809361005C
:1007B00005C08EE18A838FEF809361008A818093E8
:1007C00060000F900F90CF91DF910895DF93CF934A
:1007D0000F92CDB7DEB789830F90CF91DF91089547
:1007E000DF93CF9300D00F92CDB7DEB78091E800B2
:1007F00083508A838A81882394F08091E500882F32
:1008000090E02CE030E0A901481B590BCA0184514B
:100810009F4F2A81622F0E94BB021092E8008091B4
:100820006000882F90E080719070009731F0809187
:1008300061008F3F11F00E94A60384E189830CC000
:1008400080E390E0FC0180818C708B838B81882316
:1008500069F48981815089838981882389F710927D
:10086000E9001092E3000E94550101C00000898157
:100870000E94E6030F900F900F90CF91DF910895A3
:10088000DF93CF93CDB7DEB785E590E025E530E087
:10089000F90120812260FC0120838BE590E02BE5AB
:1008A00030E0F90120812064FC0120830E944B018B
:1008B0008AE58093D700CF91DF910895A82FB92FB3
:1008C00080E090E041E050EA609530E009C02D9171
:1008D00082279795879510F084279527305EC8F377
:1008E0006F5FA8F30895EADF8D939D930895CF93EA
:1008F000CFB7CF93C395839BE9F7839B09C0839BB5
:1009000007C0839B05C0839B03C0839B01C0A3C01A
:10091000DF93C091E500DD27C451DF4F839B02C008
:10092000DF91EBCF2F930F931F9300B32FEF03FBB8
:1009300020F94F933F9310B34FEF012703FB21F9A9
:100940003BE031C04E7F012F10B3216028C0102F33
:100950004D7F2260000000B329C04B7F2460012F2F
:10096000000010B32BC010B3477F28602AC04F7E11
:1009700000B320612CC04F7D10B320622FC04F7B8D
:1009800000B3206432C0422700B349934FEF000008
:10099000102713FB20F910B31C70C9F1297F91F2C5
:1009A000012703FB21F900B3237F89F2315058F16D
:1009B000102713FB22F910B3277E79F2012703FBDE
:1009C00023F92F7C81F200B3102713FB24F92F7930
:1009D00071F200C010B3012703FB25F92F7359F200
:1009E00000C000B3102713FB26F9223040F200C0EC
:1009F00010B3012703FB27F9243028F64F7720682E
:100A000010B30000F9CF10E41ABF002719C03B5003
:100A10003195C31BD04010E41ABF0881033CF9F0A4
:100A20000B34E9F02091E3001981110F1213EDCF7F
:100A30004A81441F093641F10D3211F0013E29F778
:100A40000093EA003F914F911F910F912F91DF91F9
:100A5000CAB7C6FD4FCFCF91CFBFCF911895209188
:100A6000EA00222379F31091E800112369F534306C
:100A70006AF13093E8002093E4001091E5003BE038
:100A8000311B3093E50022C00091E8000130E4F40E
:100A90000AE54F7049F43091600034FD19C00093AD
:100AA0006000CCECD0E018C03091D70034FD10C00D
:100AB0000093D700C8EDD0E00FC02795A8F451509F
:100AC000A9F4220F0000F9CF4AE503C042ED01C0AE
:100AD000432FC4E1D0E032E011B31C60939A11BB04
:100AE00002B320E41CE05F93012756E002BB279588
:100AF00020F4515021F4220FF9CF012756E00000D5
:100B00003B5A02BBD0F2279528F4515029F4220F0A
:100B10000000F9CF012756E0279502BB20F4515081
:100B200021F4220FF9CF012756E02991332302BB8C
:100B300021F6037F1091E900110FC651D04002BB8E
:100B400011F01093E30010E41ABF086011B3137F93
:100B5000402F437F5F9100C000C002BB11BB42BB6E
:100B600071CFDF93CF9300D0CDB7DEB79A8389835F
:100B700089819A81009711F400C006C089819A8109
:100B80000197F1F79A8389830F900F90CF91DF91AE
:100B90000895DF93CF93CDB7DEB78BE390E02BE3DF
:100BA00030E0F90120812064FC01208300C08BE348
:100BB00090E02BE330E0F90120812F7BFC012083C2
:100BC000CF91DF910895DF93CF9300D00F92CDB7EF
:100BD000DEB78A836B838B81882351F08BE390E0AF
:100BE0002BE330E0F90120812061FC01208309C062
:100BF0008BE390E02BE330E0F90120812F7EFC01B4
:100C000020838BE390E02BE330E0F90120812F7DFE
:100C1000FC0120838AE390E02AE330E0F90120819F
:100C20002F60FC0120838BE390E0FC018081807FBA
:100C300089838BE390E02A8122952F70322F2981BE
:100C4000232BFC0120830E94C9058BE390E02A81BD
:100C5000322F3F702981232BFC0120830E94C9057C
:100C60008BE390E029812F60FC0120830F900F908F
:100C70000F90CF91DF910895DF93CF9300D0CDB740
:100C8000DEB78A838A81882351F08BE390E02BE3DF
:100C900030E0F90120812061FC01208309C08BE351
:100CA00090E02BE330E0F90120812F7EFC012083CE
:100CB0008BE390E02BE330E0F90120812062FC011E
:100CC00020838AE390E02AE330E0F9012081207F4D
:100CD000FC0120838BE390E02BE330E0F9012081DD
:100CE0002064FC01208300C089E390E0FC01808146
:100CF0008295807F89838BE390E02BE330E0F901DC
:100D000020812F7BFC01208300C08BE390E02BE34C
:100D100030E0F90120812064FC01208300C089E3D8
:100D200090E0FC018081982F9F708981892B8983B5
:100D30008BE390E02BE330E0F90120812F7BFC0175
:100D4000208389810F900F90CF91DF9108951F9399
:100D5000DF93CF93CDB7DEB780E00E943C06182F1B
:100D6000812F8823CCF386E090E00E94B10580E0DB
:100D70000E943C06CF91DF911F9108951F93DF934E
:100D8000CF930F92CDB7DEB789838981803410F479
:100D900010E401C010E0812F80580E94D4060F900B
:100DA000CF91DF911F910895DF93CF930F92CDB72D
:100DB000DEB789830E94A706898160E00E94E3056F
:100DC0000F90CF91DF910895DF93CF930F92CDB71E
:100DD000DEB789830E94A706898161E00E94E3054E
:100DE0000F90CF91DF910895DF93CF9300D0CDB7CF
:100DF000DEB789836A838A81882329F489818058B0
:100E00000E94D40604C0898180540E94D4060F90A9
:100E10000F90CF91DF910895DF93CF93CDB7DEB7D9
:100E20000E94A706882F90E0CF91DF910895DF936D
:100E3000CF93CDB7DEB781E00E94D406CF91DF918A
:100E40000895DF93CF93CDB7DEB782E00E94D4063A
:100E5000CF91DF910895DF93CF9300D0CDB7DEB768
:100E60008A830E94A70689838A818A3021F4898136
:100E70000E94BE0615C08981803129F480EC60E0B3
:100E80000E94E30507C08981803521F480E860E095
:100E90000E94E3050E94A7068A8161E00E94E305A3
:100EA0000F900F90CF91DF9108951F93DF93CF9311
:100EB00000D0CDB7DEB79A83898303C0812F0E940B
:100EC0002B0789819A81FC01108121E0112309F40B
:100ED00020E089819A8101969A838983222371F780
:100EE0000F900F90CF91DF911F9108951F93DF9383
:100EF000CF9300D000D00F92CDB7DEB79D838C8307
:100F000003C0812F0E942B078C819D819A83898346
:100F10008C819D8101969D838C8389819A81FC01BE
:100F200014911B838B81182F112359F70F900F9069
:100F30000F900F900F90CF91DF911F910895DF9345
:100F4000CF930F92CDB7DEB789838AE390E02AE38F
:100F500030E0F90120812F67FC01208380E89BEBC2
:100F60000E94B1058BE390E02BE330E0F901208192
:100F70002260FC0120838BE390E02BE330E0F90159
:100F800020812160FC0120830E94C90580E89AE34A
:100F90000E94B1050E94C90580EC90E00E94B10555
:100FA0000E94C90580EC90E00E94B1058BE390E0BF
:100FB0002BE330E0F90120812E7FFC0120830E9489
:100FC000C90580EC90E00E94B10588E20E94D40639
:100FD00088E00E94D4060E94170786E00E94D4068B
:100FE00089810E94D4060F90CF91DF9108950F93CD
:100FF0001F93DF93CF93CDB7DEB72E970FB6F8943C
:10100000DEBF0FBECDBF82E390E022E330E0F90106
:1010100020812062FC01208382E390E022E330E023
:10102000F90120812061FC01208382E390E022E32A
:1010300030E0F90120812064FC01208387E390E007
:1010400021E0FC0120830E94B40F0E9440048CE048
:101050000E949F0785E790E00E94550780E090E09E
:10106000A0EAB1E489839A83AB83BC8369817A81E6
:101070008B819C8120E030E84BE355E40E94C6134D
:10108000DC01CB018D839E83AF83B88711E06D8136
:101090007E818F81988520E030E040E85FE30E9408
:1010A000201588230CF010E0112329F081E090E056
:1010B0009A87898746C011E06D817E818F819885EE
:1010C00020E03FEF4FE757E40E94C01418160CF0E1
:1010D00010E0112361F169817A818B819C8120E08C
:1010E00030E040E251E40E94C613DC01CB01BC01B8
:1010F000CD010E94F211DC01CB019A87898712C0D1
:101100008CE291E09C878B878B859C858C01C80144
:101110000197F1F78C011C870B8789859A850197C8
:101120009A87898789859A85009751F717C06D81BD
:101130007E818F8198850E94F211DC01CB019A8714
:10114000898789859A859E878D878D859E858C0167
:10115000F8013197F1F78F011E870D872E960FB694
:10116000F894DEBF0FBECDBFCF91DF911F910F91DD
:101170000895DF93CF9300D000D0CDB7DEB79C8326
:101180008B838B819C819A83898389819A81FC01DD
:101190008081882F90E0807690708032910509F0F0
:1011A0003FC089819A81FC018181882F90E0823043
:1011B000910531F18330910524F48130910541F09E
:1011C0002FC08930910581F08A30910509F128C03E
:1011D0008FE990E09093E7008093E60010929F00E3
:1011E0001092A10088E01DC089819A81FC0186814E
:1011F00097818130910511F48FEF01C080E011C01B
:1012000087EA90E09093E7008093E60081E009C0D0
:1012100089819A81FC0183818093A70080E001C0CD
:1012200080E00F900F900F900F90CF91DF91089575
:10123000DF93CF9300D00F92CDB7DEB79A83898327
:101240006B8389819A81FC0190818091620098175B
:1012500011F481E022C089819A81FC018081809310
:10126000620080916200882F90E0827090700097F9
:1012700051F088E390E028E330E0F901208121601B
:10128000FC01208309C088E390E028E330E0F90105
:1012900020812E7FFC01208381E00F900F900F9022
:1012A000CF91DF910895DF93CF930F92CDB7DEB743
:1012B00080916300833071F08091A800803150F4F8
:1012C0008091A800882F90E08C599F4FFC0180816D
:1012D000882331F410929F001092A10083E094C003
:1012E00080917400882309F480C02091A800822F87
:1012F00090E08C599F4FFC0180818983822F8F5F02
:101300008093A8008981803378F089818A3360F4E2
:1013100010929F008981803319F08981835101C027
:1013200087E28093A10067C08981813668F0898156
:101330008B3750F480916200827080939F00898186
:101340008D558093A10057C089818134A8F089818F
:101350008B3590F480916200882F90E082709070BD
:10136000009711F080E001C082E080939F008981A6
:101370008D538093A1003FC010929F001092A10056
:101380008981882F90E08D329105F1F08E329105A0
:101390006CF480329105E1F0813291055CF5893081
:1013A0009105D1F08A309105E1F025C08E3291058A
:1013B00021F08F35910529F01EC087E38093A100AD
:1013C0001AC082E080939F008DE28093A10013C039
:1013D0008CE28093A1000FC08BE28093A1000000FB
:1013E0000AC088E28093A10006C010929F0010926C
:1013F000A10001C000009091740081E0992309F0E0
:1014000080E08093740082E00F90CF91DF91089587
:10141000DF93CF9300D000D000D0CDB7DEB79C8350
:101420008B837E836D831A8219828CE390E0FC01AA
:101430008081882F90E0827090700097B1F78D8145
:101440009E812D813E812F5F3F4F3E832D832B81D7
:101450003C81F9012081622F0E94861989819A813D
:1014600001969A8389838B819C81FC01808121E094
:10147000882309F420E08B819C8101969C838B83D7
:10148000222399F689819A8126960FB6F894DEBFB9
:101490000FBECDBFCF91DF910895DF93CF9300D0E2
:1014A00000D000D0CDB7DEB79C838B837E836D8365
:1014B0001A8219828CE390E0FC018081882F90E0F1
:1014C000827090700097B1F78D819E812D813E8151
:1014D0002F5F3F4F3E832D830E947E19282F8B81E3
:1014E0009C81FC01208389819A8101969A8389835A
:1014F0008B819C81FC01808121E0882309F420E01C
:101500008B819C8101969C838B83222399F6898110
:101510009A8126960FB6F894DEBF0FBECDBFCF914D
:10152000DF9108950F931F93DF93CF93CDB7DEB76D
:1015300027970FB6F894DEBF0FBECDBF1A8219826F
:101540008CE390E0FC018081882F90E082709070A5
:101550000097B1F789819A8129813A812F5F3F4FA6
:101560003A8329830E947E198D838D818A3A41F0C6
:101570000E9417078EE790E00E94550780E085C023
:101580008CE390E0FC018081882F90E08270907065
:101590000097B1F789819A8129813A812F5F3F4F66
:1015A0003A8329830E947E198E838E81882F90E052
:1015B000880F991F0E94691790939E0080939D0049
:1015C0001C821B8258C08CE390E0FC018081882F34
:1015D00090E0827090700097B1F789819A8129819B
:1015E0003A812F5F3F4F3A8329830E947E198F8370
:1015F00020919D0030919E008B819C81880F991FC6
:101600008901080F191F8F81882F90E00E946917A8
:10161000F8019183808320919D0030919E008B8101
:101620009C81880F991F820F931FFC0180819181FB
:1016300029813A81B9010E944D0A8F8320919D0032
:1016400030919E008B819C81880F991F820F931F80
:10165000FC01808191810E9455078F81882F90E045
:1016600029813A81820F931F9A8389838B819C8180
:1016700001969C838B838E81282F30E08B819C8107
:101680008217930708F49FCF8E8127960FB6F894A0
:10169000DEBF0FBECDBFCF91DF911F910F91089597
:1016A000DF93CF93CDB7DEB728970FB6F894DEBFA0
:1016B0000FBECDBF8E8378876F831A8219828CE329
:1016C00090E0FC018081882F90E0827090700097FC
:1016D000B1F789819A8129813A812F5F3F4F3A83FF
:1016E00029836AEA0E9486198CE390E0FC018081DC
:1016F000882F90E0827090700097B1F789819A816D
:1017000029813A812F5F3F4F3A8329836E810E945E
:1017100086191C821B8231C08B819C81880F991F86
:101720002F813885820F931FFC018081918129814F
:101730003A812F5F3F4FB9010E94080A8D838CE3E5
:1017400090E0FC018081882F90E08270907000977B
:10175000B1F789819A816D810E9486198D81282F28
:1017600030E089819A81820F931F01969A83898341
:101770008B819C8101969C838B838E81282F30E006
:101780008B819C818217930738F228960FB6F894C4
:10179000DEBF0FBECDBFCF91DF910895DF93CF9312
:1017A0000F92CDB7DEB7898388E390E028E330E07D
:1017B000F9012081622F2981422F50E021E030E0A1
:1017C000042E02C0220F331F0A94E2F72627FC01E1
:1017D00020830F90CF91DF910895DF93CF9300D0B6
:1017E000CDB7DEB789836A83CE010196FC01808183
:1017F000882F90E02A81222F30E002C095958795AE
:101800002A95E2F78170907021E0009709F020E0BE
:10181000822F0F900F90CF91DF910895DF93CF9398
:10182000CDB7DEB780E390E0FC01808166E00E94E6
:10183000ED0B882391F08091AB00813099F4809179
:10184000AC00883C21F41092AB0086E04CC0809143
:10185000AC008F5F8093AC0005C081E08093AB004B
:101860001092AC0080E390E0FC01808165E00E9472
:10187000ED0B882391F08091AD00813099F4809137
:10188000AE00883C21F41092AD0085E02CC0809120
:10189000AE008F5F8093AE0005C081E08093AD0005
:1018A0001092AE0080E390E0FC01808164E00E9431
:1018B000ED0B882391F08091AF00813099F48091F5
:1018C000B000883C21F41092AF0084E00CC08091FD
:1018D000B0008F5F8093B00005C081E08093AF00BF
:1018E0001092B0008FEFCF91DF910895DF93CF93E7
:1018F0000F92CDB7DEB789838981882311F489815E
:101900001AC08981803151F080E10E94D40680E2C2
:101910000E942B0780E10E94D4060BC08FE060E09C
:101920000E94F40680E20E942B078FE060E00E9494
:10193000F406898181500F90CF91DF910895DF9354
:10194000CF9300D0CDB7DEB719820E9417070E944F
:10195000BF0F0E946A118A8324C08A818B3111F4DF
:1019600080E023C08A81883029F489810E94760C26
:10197000898314C08A8188238CF08981803270F435
:101980008A810E942B078981882F90E08C599F4F74
:101990002A81FC01208389818F5F89830E946A11DB
:1019A0008A838A818D30C9F689810F900F90CF91FB
:1019B000DF910895EF92FF920F931F93DF93CF93E0
:1019C000CDB7DEB769970FB6F894DEBF0FBECDBFB7
:1019D0008EEF8B830E94F7071D821C820BC08C81C7
:1019E0009D8181569F4FFC0110828C819D810196C3
:1019F0009D838C838C819D818830910580F381E368
:101A000090E021E330E0F90120812860FC0120838F
:101A10001D821C8286C0A89580E090E0A0E0B0E422
:101A20008C879D87AE87BF876C857D858E859F85DA
:101A300020E030E84BE355E40E94C613DC01CB0103
:101A4000888B998BAA8BBB8B11E0688979898A89ED
:101A50009B8920E030E040E85FE30E942015882366
:101A60000CF010E0112329F081E090E09D8B8C8B2D
:101A700046C011E0688979898A899B8920E03FEF17
:101A80004FE757E40E94C01418160CF010E0112321
:101A900061F16C857D858E859F8520E030E040E298
:101AA00051E40E94C613DC01CB01BC01CD010E94B0
:101AB000F211DC01CB019D8B8C8B12C08CE291E08A
:101AC0009F8B8E8B8E899F898C01C8010197F1F7BE
:101AD0008C011F8B0E8B8C899D8901979D8B8C8B24
:101AE0008C899D89009751F717C0688979898A89FF
:101AF0009B890E94F211DC01CB019D8B8C8B8C8920
:101B00009D89998F888F888D998D8C01F8013197E7
:101B1000F1F78F01198F088F8C819D8101969D832C
:101B20008C838C819D818A3F910508F474CF81E379
:101B300090E021E330E0F9012081277FFC01208340
:101B40008EE490E02EE430E0F90120812260FC0177
:101B5000208378940E94920A8093A900198284E0DD
:101B60008093AA0084E08A8305C0000003C00000BF
:101B700001C00000A8950E94F0038B818F3FB9F14E
:101B80000E9417078091AA00843009F58981882F67
:101B900090E0880F991F8A5D9E4F9F838E838E8170
:101BA0009F818C01F801E590F4908F01F986E88619
:101BB0001F830E83888599859C0184E690E0B90196
:101BC0000E94671984E690E00E94550710C020919A
:101BD0009D0030919E008981882F90E0880F991F89
:101BE000820F931FFC01808191810E9455070E9402
:101BF0000E0C8B838B81882F90E08530910531F11D
:101C00008630910521F08430910559F077C184E048
:101C10008093AA00198284E08A8380E00E94CE0B20
:101C20006DC18981282F30E08A81882F90E001974B
:101C30002817390734F40E94170789818F5F898339
:101C400001C0198280E00E94CE0B58C18091AA0089
:101C5000843009F06BC08981813009F05FC00E9437
:101C60009F0C8A878A85882309F454C08A85882F27
:101C700090E08C599F4FFC01108280919D009091C3
:101C80009E002091A900222F30E02F5F3F4F220FAE
:101C9000331FB9010E949C1890939E0080939D0071
:101CA00020919D0030919E008091A900882F90E0A6
:101CB000880F991F8901080F191F8A85882F90E0C6
:101CC0000E946917F8019183808320919D003091D3
:101CD0009E008091A900882F90E0880F991F820FA5
:101CE000931FFC018081918124E630E0B9010E94BC
:101CF00077198091A9008F5F8093A9008091A90036
:101D00008A838091A90020919D0030919E00B901A5
:101D10000E94500B80E00E94CE0BF0C0898180931E
:101D2000AA0019828091A9008A83E8C099818A81DA
:101D3000981708F0E0C08091AA00882F90E08230C8
:101D4000910501F18330910509F482C0009709F0F3
:101D5000D4C020919D0030919E008981882F90E011
:101D6000880F991F820F931FFC012081318184E627
:101D700090E0B9010E9477191092A80082E0809348
:101D80006300B8C020919D0030919E008981882F0A
:101D900090E0880F991F820F931FFC018081918131
:101DA0000E9403188981882F90E09D838C8321C035
:101DB00020919D0030919E008C819D81880F991FFC
:101DC000820F931F40919D0050919E002C813D8178
:101DD0002F5F3F4F220F331F240F351FF901208142
:101DE0003181FC01318320838C819D8101969D830B
:101DF0008C838091A900882F90E001979C018C81B1
:101E00009D8182179307A0F28091A9008150809351
:101E1000A90080919D0090919E002091A900222F01
:101E200030E0220F331FB9010E949C1890939E004E
:101E300080939D0019828091A9008A838091A900D6
:101E400020919D0030919E00B9010E94500B52C01C
:101E50000E949F0C8B878B85882309F446C08B8555
:101E6000882F90E08C599F4FFC01108220919D009B
:101E700030919E008981882F90E0880F991F8901F9
:101E8000080F191F20919D0030919E008981882F95
:101E900090E0880F991F820F931FFC018081918130
:101EA0002B85222F30E0B9010E949C18F801918304
:101EB000808320919D0030919E008981882F90E041
:101EC000880F991F820F931FFC018081918124E666
:101ED00030E0B9010E9477198091A90020919D00FE
:101EE00030919E00B9010E94500B198280E00E943F
:101EF000CE0B000003C0000001C000008091D7009D
:101F0000882F90E080719070009709F42ECE809118
:101F10006300823009F02BCE809162008F3F09F47C
:101F200028CE0E945309809363008FE990E068E017
:101F30000E94BB011FCEDF93CF93CDB7DEB78BE0FE
:101F40008093B1001092B2008BE590E02BE530E079
:101F5000F90120812062FC01208384E590E0FC01EE
:101F60001082CF91DF910895DF93CF93CDB7DEB785
:101F70000E949B0F0E94BF0FCF91DF910895DF93C6
:101F8000CF93CDB7DEB784EB90E09093C5008093FC
:101F9000C40084EB90E09093C7008093C600109239
:101FA000B300CF91DF9108951F93DF93CF93CDB707
:101FB000DEB7A6970FB6F894DEBF0FBECDBF8EA3D7
:101FC0008091C900882309F02FC18EA1882F90E04D
:101FD00089359105C9F08A35910524F4823191053E
:101FE00079F017C0803E910539F0803F910589F462
:101FF00081E08093C90032C181E08093CA002EC184
:1020000081E08093CB002AC181E08093CB00000067
:1020100025C18091CA00882309F456C0198203C0E3
:1020200089818F5F89832CE332E08981882F90E05A
:10203000880F991F820F931F9B838A838A819B81BC
:10204000FC0114911C839C818EA1981799F02CE3BC
:1020500032E08981882F90E0880F991F820F931FAB
:102060009E838D838D819E81FC0114911F838F81BE
:102070008823B1F62CE332E08981882F90E0880F25
:10208000991F820F931F9987888788859985FC01FE
:1020900014911A879A858EA1981709F0DAC02CE35B
:1020A00032E08981882F90E0880F991F0196820F76
:1020B000931F9C878B878B859C85FC0114911D87C2
:1020C0008D850E943811CAC08091CB00882309F009
:1020D00056C0198203C089818F5F89832EE231E067
:1020E0008981882F90E0880F991F820F931F9F8707
:1020F0008E878E859F85FC011491188B98898EA1FF
:10210000981799F02EE231E08981882F90E0880FAE
:10211000991F820F931F9A8B898B89899A89FC0159
:1021200014911B8B8B898823B1F62EE231E08981D3
:10213000882F90E0880F991F820F931F9D8B8C8BA7
:102140008C899D89FC0114911E8B9E898EA1981704
:1021500009F081C02EE231E08981882F90E0880F5C
:10216000991F0196820F931F988F8F8B8F89988D5F
:10217000FC011491198F898D0E9438116FC019824A
:1021800003C089818F5F898324EB31E08981882FA7
:1021900090E0880F991F820F931F9B8F8A8F8A8DE3
:1021A0009B8DFC0114911C8F9C8D8EA1981799F02A
:1021B00024EB31E08981882F90E0880F991F820FEE
:1021C000931F9E8F8D8F8D8D9E8DFC0114911F8F7F
:1021D0008F8D8823B1F624EB31E08981882F90E040
:1021E000880F991F820F931F99A388A388A199A193
:1021F000FC0114911AA39AA18EA1981771F524EBF2
:1022000031E08981882F90E0880F991F0196820F15
:10221000931F9CA38BA38BA19CA1FC0114911DA3D4
:102220008DA10E9438111AC01092C9001092CA00E4
:102230008EA1882F90E08231910521F0893591059A
:1022400021F00CC01092CB0009C01092CB0000000E
:1022500005C0000003C0000001C00000A6960FB634
:10226000F894DEBF0FBECDBFCF91DF911F910895CF
:10227000DF93CF930F92CDB7DEB789838091B30000
:10228000803120F58091C4009091C5002981FC0126
:1022900020838091C4009091C50001969093C50061
:1022A0008093C4008091B3008F5F8093B30020912E
:1022B000C4003091C50084EC90E02817390730F055
:1022C00084EB90E09093C5008093C4000F90CF9171
:1022D000DF910895DF93CF930F92CDB7DEB7000063
:1022E0008091B3008823E1F38091C6009091C700EC
:1022F000FC01808189838091C6009091C70001967E
:102300009093C7008093C6002091C6003091C7000B
:1023100084EC90E02817390730F084EB90E090933C
:10232000C7008093C6008091B30081508093B300B2
:1023300089810F90CF91DF9108951F920F920FB670
:102340000F9211242F933F934F935F936F937F933B
:102350008F939F93AF93BF93EF93FF93DF93CF93AD
:10236000CDB7DEB778948091B1008330C0F0809112
:10237000B1008B30A0F48091C80086958093C8008E
:1023800086E390E0FC018081882F90E0827090705D
:10239000009729F08091C80080688093C8008091E0
:1023A000B10081508093B1008091B100882339F44D
:1023B0008091C8000E94D40F8BE08093B100CF9130
:1023C000DF91FF91EF91BF91AF919F918F917F919D
:1023D0006F915F914F913F912F910F900FBE0F9092
:1023E0001F901895EF92FF920F931F937B018C0122
:1023F00020E030E040E05FE40E94F01487FD11C06F
:10240000C801B70120E030E040E05FE40E9495138E
:102410000E9450159B01AC01205030404040504874
:1024200006C0C801B7010E9450159B01AC01B9015B
:10243000CA011F910F91FF90EF900895A0E0B0E0C6
:10244000E4E2F2E10C943617FC01EA01808182306B
:1024500008F438C1DB019C91923008F430C184301B
:1024600059F4943009F02EC1918111968C911197F5
:10247000981709F021C126C1943009F420C1923087
:10248000B1F4823009F01EC1CA01AF0128E0DA01BF
:102490000D90AD01DC010D92CD012150C1F7DB01A2
:1024A00011968C9111979181892389830AC1823079
:1024B00009F405C1C280D380DB0112966D907C9037
:1024C000139724813581468157811496ED90FD90B4
:1024D0000D911C911797C601861997095C0197FF0A
:1024E00004C0AA24BB24A81AB90AB0E2AB16B104EE
:1024F0000CF061C0181619066CF5370148010A2C5A
:1025000004C096948794779467940A94D2F781E0F4
:1025100090E0A0E0B0E00A2C04C0880F991FAA1F29
:10252000BB1F0A94D2F70197A109B1098E219F21FF
:10253000A023B123EE24FF248701E3940097A10593
:10254000B10519F4EE24FF248701E628F7280829AD
:1025500019293CC00097D1F1CA0CDB1C39014A0192
:102560000A2C04C096948794779467940A94D2F7BF
:1025700081E090E0A0E0B0E00A2C04C0880F991F31
:10258000AA1FBB1F0A94D2F70197A109B1098223A0
:102590009323A423B52321E030E040E050E00097EE
:1025A000A105B10519F420E030E0A9012629372959
:1025B000482959290BC06C147D0424F4EE24FF240F
:1025C000870104C0630120E030E0A9018181FB01A3
:1025D0009181891709F445C0882349F0D801C701C2
:1025E000821B930BA40BB50B9C01AD0104C02E19EB
:1025F0003F09400B510B57FD04C01982DB82CA8290
:102600000BC081E08983DB82CA825095409530956A
:1026100021953F4F4F4F5F4F2C833D834E835F8308
:102620000DC0880F991FAA1FBB1F8C839D83AE838B
:10263000BF838A819B8101979B838A838C819D8143
:10264000AE81BF819C01AD012150304040405040DF
:102650002F3FEFEF3E07EFEF4E07EFE35E0708F384
:102660000BC08983DB82CA822E0D3F1D401F511F84
:102670002C833D834E835F8383E088832C813D815F
:102680004E815F8157FF1DC0DA01C90181709070D2
:10269000A070B0705695479537952795822B932B50
:1026A000A42BB52B8C839D83AE83BF838A819B81B2
:1026B00001969B838A8305C0EDE8F0E003C0FB012F
:1026C00001C0FE01CF01CDB7DEB7EEE00C9452178A
:1026D000A0E2B0E0EEE6F3E10C943E1769837A8362
:1026E0008B839C832D833E834F83588789E0E82E1C
:1026F000F12CEC0EFD1ECE010196B7010E94701662
:102700008E010F5E1F4FCE010596B8010E94701614
:10271000C701B801AE01475E5F4F0E941E120E94C2
:10272000A215A096E6E00C945A17A0E2B0E0EBE9FF
:10273000F3E10C943E1769837A838B839C832D830A
:102740003E834F8358878E01075F1F4FCE0101964E
:10275000B8010E94701691E1E92EF12CEC0EFD1EDD
:10276000CE010596B7010E9470168A8991E08927EB
:102770008A8BC801B701AE01475E5F4F0E941E12EF
:102780000E94A215A096E6E00C945A17A0E2B0E0D1
:10279000ECECF3E10C94321769837A838B839C838E
:1027A0002D833E834F835887CE010196BE01675F1C
:1027B0007F4F0E947016CE010596BE016F5E7F4F5F
:1027C0000E9470169985923078F089898230C0F025
:1027D000943019F4823041F4CBC0843019F4923033
:1027E00079F4C6C0923051F481E02A859A8929177C
:1027F00009F480E08A87CE010996BCC0823051F48A
:1028000081E02A859A89291709F480E08A8BCE0114
:102810004196B0C06D847E848F849888ED88FE8850
:102820000F89188DE0E2F0E080E090E0DC01AA245E
:10283000BB24650120E030E0A901B3016170707034
:1028400061157105D1F02E0D3F1D401F511F15015F
:102850002601280E391E4A1E5B1E81E090E0A0E092
:10286000B0E02E153F054007510718F080E090E0DA
:10287000DC01820D931DA41DB51DAA0CBB1CCC1C34
:10288000DD1C17FF09C061E0262E312C412C512C94
:10289000A228B328C428D528319749F0EE0CFF1C94
:1028A000001F111F9694879477946794C6CF6B8905
:1028B0007C89EB85FC856E0F7F1F6E5F7F4F7C8F61
:1028C0006B8F61E0EA857A89E71709F460E06A8F27
:1028D0006B8D7C8D10C0FC01E170F070309729F099
:1028E00056954795379527955068B695A79597952E
:1028F00087956F5F7F4FB7FDEECF0CC0880F991F94
:10290000AA1FBB1F57FD8160220F331F441F551F95
:10291000615070408030E0E09E07E0E0AE07E0E408
:10292000BE0760F36B8F7C8F6FE7E62EF12C012DD5
:10293000112DE822F9220A231B2360E4E616F10494
:102940000105110561F487FD0AC021153105410516
:10295000510529F0805C9F4FAF4FBF4F80788D8F1E
:102960009E8FAF8FB8A383E0898FCE01499602C0B6
:102970008DE890E00E94A215A096E2E10C944E171B
:10298000A8E1B0E0E6ECF4E10C943E1769837A83A9
:102990008B839C832D833E834F8358878E01075FF3
:1029A0001F4FCE010196B8010E94701681E1E82EFA
:1029B000F12CEC0EFD1ECE010596B7010E9470169B
:1029C0008985823040F08989823028F0C801B701BA
:1029D0000E94D91601C08FEF6896E6E00C945A1752
:1029E000A8E1B0E0E6EFF4E10C943E1769837A8346
:1029F0008B839C832D833E834F8358878E01075F93
:102A00001F4FCE010196B8010E94701681E1E82E99
:102A1000F12CEC0EFD1ECE010596B7010E9470163A
:102A20008985823040F08989823028F0C801B70159
:102A30000E94D91601C08FEF6896E6E00C945A17F1
:102A4000A8E1B0E0E6E2F5E10C943E1769837A83F1
:102A50008B839C832D833E834F8358878E01075F32
:102A60001F4FCE010196B8010E94701681E1E82E39
:102A7000F12CEC0EFD1ECE010596B7010E947016DA
:102A80008985823040F08989823028F0C801B701F9
:102A90000E94D91601C081E06896E6E00C945A17AE
:102AA000ACE0B0E0E6E5F5E10C94421769837A8387
:102AB0008B839C83CE010196BE016B5F7F4F0E948A
:102AC00070168D81823081F1823070F1843021F472
:102AD0008E81882369F10AC02F81388537FD24C093
:102AE0006E812F3131053CF0662311F120E030E09A
:102AF00040E050E821C08EE190E0821B930B2985D5
:102B00003A854B855C8504C0569547953795279542
:102B10008A95D2F7662381F050954095309521959E
:102B20003F4F4F4F5F4F08C020E030E0A90104C085
:102B30002FEF3FEF4FEF5FE7B901CA012C96E2E0BC
:102B40000C945E17EF92FF920F931F93CF93DF9336
:102B5000FC012481358146815781618180818230E9
:102B600020F44061EFEFF0E0A3C0843009F49BC093
:102B7000823009F492C0211531054105510509F44F
:102B80008FC00280F381E02D8FEFE238F8070CF060
:102B90005AC0C2E8DFEFCE1BDF0BCA31D1056CF59E
:102BA00079018A010C2E04C016950795F794E794D5
:102BB0000A94D2F781E090E0A0E0B0E00C2E04C0CF
:102BC000880F991FAA1FBB1F0A94D2F70197A1096A
:102BD000B10982239323A423B52321E030E040E010
:102BE00050E00097A105B10519F420E030E0A901FB
:102BF0002E293F29402B512B03C020E030E0A901B2
:102C0000DA01C9018F779070A070B070803491059F
:102C1000A105B10539F427FF09C0205C3F4F4F4F94
:102C20005F4F04C0215C3F4F4F4F5F4FE1E0F0E04A
:102C3000203080E0380780E0480780E4580728F516
:102C4000E0E0F0E022C0E038F1056CF5E158FF4F1C
:102C5000DA01C9018F779070A070B070803491054F
:102C6000A105B10539F427FF09C0205C3F4F4F4F44
:102C70005F4F04C0215C3F4F4F4F5F4F57FF05C070
:102C80005695479537952795319687E05695479500
:102C9000379527958A95D1F70BC0E0E0F0E005C0A5
:102CA000E0E0F0E005C0EFEFF0E020E030E0A90167
:102CB0008E2F879588278795942F9F77679566270E
:102CC0006795E695E22EA92FA82BFE2FF62B622FF3
:102CD000732F8A2F9F2FCDB7DEB7E6E00C945A17DB
:102CE000DC01FB012C9111963C91119712968C916D
:102CF0001297482F4F7750E0982F991F9927991FC7
:102D000013966C911397862F880F892B90E0661F7E
:102D10006627661F6183009739F521153105410546
:102D2000510511F482E029C082E89FEF93838283EA
:102D300067E0220F331F441F551F6A95D1F783E0C8
:102D4000808309C0220F331F441F551F8281938146
:102D5000019793838283203080E0380780E0480722
:102D600080E4580778F320C08F3F910579F421154E
:102D700031054105510519F484E08083089544FF2D
:102D800003C081E0808310C010820EC08F57904036
:102D90009383828383E0808387E0220F331F441F65
:102DA000551F8A95D1F75064248335834683578312
:102DB0000895FC01DB019081923008F449C08C91A8
:102DC000823008F445C0943051F461818430B1F50B
:102DD00011962C91119730E0261B310941C08430A7
:102DE00021F0923041F48230B1F111968C9111971B
:102DF0008823A1F12DC06181823001F111968C915F
:102E000011976817D9F42281338112968D919C9184
:102E100013978217930794F028173907BCF0248181
:102E200035814681578114968D919D910D90BC916D
:102E3000A02D82179307A407B50718F4662341F065
:102E40000DC0281739074A075B0728F4662331F0BD
:102E500021E030E005C020E030E002C02FEF3FEF7E
:102E6000C90108952F923F924F925F926F927F9285
:102E70008F929F92AF92BF92CF92DF92EF92FF928A
:102E80000F931F93CF93DF93CDB7DEB7CA1BDB0B36
:102E90000FB6F894DEBF0FBECDBF09942A883988DB
:102EA00048885F846E847D848C849B84AA84B984E2
:102EB000C884DF80EE80FD800C811B81AA81B981EE
:102EC000CE0FD11D0FB6F894DEBF0FBECDBFED0102
:102ED0000895CF93DF938230910510F482E090E063
:102EE000E0910401F091050140E050E020E030E085
:102EF00026C06081718168177907E0F0681779074B
:102F000081F4828193812115310531F0D901139625
:102F10009C938E9312972BC090930501809304018C
:102F200026C04115510519F06417750718F4AB0157
:102F3000E901DF019F0172816381E72FF62F30974E
:102F4000C1F64115510501F1481B590B443051059B
:102F500080F412968D919C911397209719F09B8382
:102F60008A8304C09093050180930401FD01329689
:102F700046C0FD01E40FF51F8193919342505040EC
:102F800011965C934E933BC0209102013091030156
:102F90002115310541F4209197003091980030932C
:102FA0000301209302012091990030919A0021158C
:102FB000310541F42DB73EB74091950050919600F0
:102FC000241B350BE0910201F0910301E217F30796
:102FD000A0F42E1B3F0B2817390778F0AC014E5F89
:102FE0005F4F2417350748F04E0F5F1F50930301C2
:102FF000409302018193919302C0E0E0F0E0CF01A1
:10300000DF91CF910895CF93DF93009709F491C09A
:10301000FC013297138212826091040170910501C4
:103020006115710581F420813181280F391F80914C
:103030000201909103018217930799F5F093030120
:10304000E093020176C0DB0180E090E002C0CD0198
:10305000D901AE17BF0748F412962D913C911397F2
:1030600021153105A1F7CD0121C0B383A283EF0162
:10307000499159919E01240F351FA217B30779F486
:103080002D913C911197240F351F2E5F3F4F3183B7
:10309000208312962D913C911397338322830097BE
:1030A00029F4F0930501E093040143C0DC01139679
:1030B000FC93EE9312974D915D91A40FB51FEA1703
:1030C000FB0769F420813181240F351F2E5F3F4FAC
:1030D000EC0139832883228133813B832A83E0E01A
:1030E000F0E002C0FB01BC01DB0112968D919C91C6
:1030F00013970097B9F79B012E5F3F4F8D919C91DD
:103100001197820F931F40910201509103014817BC
:10311000590779F4309729F41092050110920401AF
:1031200002C0138212822250304030930301209358
:103130000201DF91CF910895A0E0B0E0E2EAF8E16A
:103140000C9438178C01CB010115110529F40E944C
:103150006917082F192FB5C0D80112979801260FAB
:10316000371F2A173B0708F4AAC0ED90FC9011976F
:10317000E616F706D0F045E0E416F10408F4A1C025
:10318000A701445050404617570708F49AC0A701BA
:1031900042505040461B570BF901419351936D9398
:1031A0007C93CF010E9403188CC05B01AE18BF084E
:1031B00048018E0C9F1CE0910401F0910501CC2484
:1031C000DD24C0E0D0E041C0E815F90599F5608143
:1031D0007181AB014E5F5F4F4A155B0558F1AB0142
:1031E0004A195B09CC24DD246894C1F8C40ED51EAD
:1031F0008280A380E5E0CE16D10448F0F9018282F6
:10320000A3825183408311969C938E9309C0C7017A
:103210000296860F971F11969C938E93E82DFA2D98
:10322000209719F0FB83EA834CC0F0930501E093EB
:10323000040147C040815181C416D50608F46A01D3
:10324000EF0152814381E52FF42F309709F0BCCF75
:10325000409102015091030148155905E9F4C8163F
:10326000D906D0F44091990050919A00411551052A
:1032700041F44DB75EB76091950070919600461B82
:10328000570B24173507D8F430930301209302011C
:1032900011969C938E9315C00E946917C82EE60163
:1032A0006E01D92EE601209751F08C2DB801A701AF
:1032B0000E946E19C8010E940318860102C000E036
:1032C00010E0C801CDB7DEB7ECE00C945417FB0159
:1032D000DC0105900D920020E1F70895FB01DC016F
:1032E00002C001900D9241505040D8F70895FB0163
:1032F000DC0101900D920020E1F70895E199FECFE5
:103300009FBB8EBBE09A99278DB30895262FE19934
:10331000FECF9FBB8EBB2DBB0FB6F894E29AE19A0D
:0A3320000FBE01960895F894FFCF48
:10332A005AFFFF0300000000000000000000000038
:10333A00000000000173656C6563742E2E0045451C
:10334A0050524F4D20636F72727570740000000006
:0C335A0000000000002000060100000040
:00000001FF
